:0300000002104C9F
:0C104C00787FE4F6D8FD758145020AAA01
:080003008F993099FDC299228A
:0B1064008F9BE59A30E1FB539AFD22C0
:100EF40090012DEBF0A3EAF0A3E9F0A3ECF0A3ED4D
:100F0400F0E4FDFCD3900131E09DEC6480F89001A5
:100F140030E0648098401E90012DE0FBA3E475F05E
:100F2400011201A4A9F0FA12013CFF1200030DBD45
:060F340000010C80CF2239
:100F3A00900145EBF0A3EAF0A3E9F0A3ECF0A3EDEE
:100F4A00F0E4FDFCD3900149E09DEC6480F8900147
:100F5A0048E0648098401E900145E0FBA3E475F0E8
:100F6A00011201A4A9F0FA12013CFF1210640DBD8E
:060F7A0000010C80CF22F3
:100CFC0090012CEBF0A3EAF0A3E9F07E007F0B7DD2
:100D0C000090012CE0FBA3E0FAA3E0F9120555904A
:100D1C00012FE0FBA3E0FAA3E0F9C003C002C0017D
:100D2C0090012CE0FBA3E0FAA3E0F9900008120379
:100D3C0034900132E0FEA3E0FF90012CE0FBA3E035
:100D4C00FAA3E0F9900004EE8FF01202C190013486
:080D5C00A3E0900007020182F0
:1008D60090014AEBF0A3EAF0A3E9F090014AE0FBAD
:1008E600A3E0FAA3E0F9900006120155600B900010
:1008F6000712015570030209BFAF0590014AE0FBDC
:10090600A3E0FAA3E0F9900008120304C003C002B2
:10091600C00190014AE0FBA3E0FAA3E0F9900002CF
:100926001201E5D001D002D003F58285F083EF12E3
:10093600018290014AE0FBA3E0FAA3E0F9900002ED
:10094600E475F0011202559000041201E5FFAEF0C5
:100956009000021201E5B50719E5F0B506149001FD
:100966004AE0FBA3E0FAA3E0F9900002E4F5F012F6
:1009760002C190014AE0FBA3E0FAA3E0F990000669
:10098600120155600E9000021201E5FFE5F08FF0AE
:100996000202A29000021201E5FFAEF01201BAB502
:1009A6000717EEB5F01390014AE0FBA3E0FAA3E0C7
:0A09B600F99000067401120182227C
:1009C00090014DEBF0A3EAF0A3E9F090014DE0FBBC
:1009D000A3E0FAA3E0F9900006120155600B900025
:1009E000071201557003020AA9AF0590014DE0FB03
:1009F000A3E0FAA3E0F9900008120304C003C002C8
:100A0000C00190014DE0FBA3E0FAA3E0F9900002E1
:100A10001201E5D001D002D003F58285F083EF12F8
:100A2000018290014DE0FBA3E0FAA3E0F9900002FF
:100A3000E475F0011202559000041201E5FFAEF0DA
:100A40009000021201E5B50719E5F0B50614900112
:100A50004DE0FBA3E0FAA3E0F9900002E4F5F01208
:100A600002C190014DE0FBA3E0FAA3E0F99000067B
:100A7000120155600E9000021201E5FFE5F08FF0C3
:100A80000202A29000021201E5FFAEF01201BAB517
:100A90000717EEB5F01390014DE0FBA3E0FAA3E0D9
:0A0AA000F990000674011201822291
:100FBE00900006120155B4010A9000041201E5FFDB
:100FCE00AEF0229000021201E5FFAEF01201BAFD62
:100FDE00C3EF9DFFEE95F0FEC364809480500C909D
:0C0FEE0000041201E52FFFE5F03EFE229A
:1005D90090012DEBF0A3EAF0A3E9F0E4900137F0E4
:1005E900A3F0900133E0FEA3E0FF7D00900130E02D
:1005F900FBA3E0FAA3E0F912055590012DE0FBA356
:10060900E0FAA3E0F9120FBED3EF9400EE648094F0
:100619008050030207D7D3900134E09F900133E063
:100629009E4005EEF0A3EFF090012DE0FBA3E0FA68
:10063900A3E0F99000041201E5FFAEF01201BAFD42
:10064900C3EF9DFFEE95F0900135F0A3EFF0900117
:1006590030E0FBA3E0FAA3E04A4B7003020766A36C
:10066900E0FEA3E0FFC3900136E09F900135E09ED4
:10067900404690012DE0FBA3E0FAA3E090000812A8
:100689000304C003C002C00190012DE0FBA3E0FAFE
:10069900A3E0F91201BAD001D002D00329F9EA3551
:1006A900F0FAC003C002900130E0FBA3E0FAA3E036
:1006B900F8AC02AD0302075F900135E0FEA3E0FF4D
:1006C90090012DE0FBA3E0FAA3E0F99000081203E2
:1006D90004C003C002C00190012DE0FBA3E0FAA30E
:1006E900E0F91201BAD001D002D00329F9EA35F0B4
:1006F900FAC003C002900130E0FBA3E0FAA3E0F8DE
:10070900AC02AD03D002D003120116900135E0FE10
:10071900A3E0FFC3900134E09FFF900133E09EFE08
:1007290090012DE0FBA3E0FAA3E0F9900008120381
:1007390004C003C002C001900130E0FBA3E0FAA3AA
:10074900E0F9900135E0FCA3E0FDE92DF9EA3CA8C8
:1007590001FCAD03D001D002D00312011690013380
:10076900E0FEA3E0FF90012DE0FBA3E0FAA3E0F98E
:10077900EE8FF012021D90012DE0FBA3E0FAA3E039
:10078900F99000041201E5FFAEF01201BAC39FE52A
:10079900F09E40191201BAFFAEF09000041201E573
:1007A900FDC3EF9DFFEE95F08FF01202A290012D8F
:1007B900E0FBA3E0FAA3E0F9900006E412018290BD
:1007C9000133E0FFA3E0900137CFF0A3EFF09001F0
:0707D90037E0FEA3E0FF2260
:10000E009000021201E5FFE5F08FF01202A29000BF
:05001E0006E40201826E
:10102B00438E805389F0438901758AF5758CFFC215
:04103B008DD28C22A4
:0C10580043AF01D2ACD2DED2A9D2AF224D
:100DB80053877F759850438E40538EFE53890F4357
:100DC8008920EF8EF012038D0DE409600DEC12C03E
:100DD8000DF425800DF64B0000000DF4758B707531
:100DE8008D708018758BB8758DB880108008758BDC
:100DF800EE758DEE8006758BDC758DDCC2ABC29905
:030E0800D28E2265
:100F8000538EF7759A50438E04EF8EF012038D0F37
:100F9000A309600FA812C00FAD25800FAF4B000052
:100FA000000FAD759C70800F759CB8800A80057528
:0E0FB0009CEE8003759CDC539AFD438E10224C
:100FFA00E4F5D8F5E9F5F9F5D9753624F5378537E5
:10100A00EAE536F5FAE42537F53774243536F53648
:10101A00E4F508F509F538F539F520F52175DA49C9
:01102A0022A3
:0D103F007FD37E1E7D0BDDFEDEFCDFFA227E
:100AAA00C295C294C2B37E007F0C7D007B007A009F
:100ABA00793A12055512102B120FFA7F607E09122D
:100ACA000DB8120F8012105890012FE4F0A3740091
:100ADA00F0A37422F0A3E4F0A37414F0E4A3F0A347
:100AEA00F0FB7A00790A120CFC90012F7401F0A332
:100AFA007400F0A37496F0A3E4F0A37496F0E4A350
:100B0A00F0A3F0FB7A007915120CFC12103FD29573
:100B1A00D294D2B3120C86E542B401031207E0E57F
:100B2A003BB40123E5457015D3E5399464E538945F
:100B3A0000400AE4F538F539433A10C294E545B461
:100B4A0001D2120E5C80CD433A10E4F538F53980B3
:010B5A00C3D7
:100B5B0051310D00283232362E30203138352E30BF
:100B6B00203232302E30203033322032332E3520AB
:100B7B00322E32352035302E302030303030303080
:100B8B0030300D00490D0023566E61746120436FA8
:100B9B002E2C204C5444202056353043202020202E
:100BAB0020202056657220312E303020200D00463B
:100BBB000D00233232302E3020313230203232329F
:100BCB002E302035302E300D00430D0043540D00D8
:100BDB0051310D00005430310D0043540D000053C2
:090BEB0030310D00430D00000043
:1007E0009001307401F0A37400F0A37400F0A3E44E
:1007F000F0A37414F07B007A00790A1205D99001F5
:100800002CEFF078007C007D017BFF7A0B795B1286
:100810000538EF70157BFF7A0B795F120026AC0666
:10082000AD077BFF7A0B795F804C78007C007D01FF
:100830007BFF7A0B798F120538EF70157BFF7A0BEF
:100840007992120026AC06AD077BFF7A0B79928075
:100850002578007C007D017BFF7A0B79BA12053880
:10086000EF70187BFF7A0B79BD120026AC06AD073E
:100870007BFF7A0B79BD120EF4804E900000E0B43D
:10088000540B900003E0B40D04C2B3803C90000010
:10089000E0B4530B900003E0B40D04C295802A78B5
:1008A000007C007D017BFF7A0B79D4120538EF7054
:1008B00004D295801478007C007D017BFF7A0B794F
:1008C000D7120538EF7002D2B37B007A00790A1292
:0608D000000EE4F54222D7
:100C8600782C7C017D017BFF7A0B79DB7E007F1956
:100C9600120116C3E508648094805059E53A541051
:100CA600FFE4FCFDFE7B10FAF9F8C31202EE704574
:100CB600F508750964AF3BEF75F005A4242CF974AB
:100CC6000135F0FA7B01C003C002C001AF3BEF75EE
:100CD600F005A4242CF9740135F0FA120026AC06AE
:100CE600AD07D001D002D003120F3A053BE53BB465
:060CF6000503E4F53B22BA
:100E5C009001307401F0A37400F0A37400F0A3E4CB
:100E6C00F0A37496F07B007A0079151205D99001E5
:100E7C002CEFF078007C007D017BFF7A0B795F1200
:100E8C000538EF7004D2948002C2947B007A00790A
:0C0E9C001512000EE4F545F538F539227A
:03000B00020BF4F1
:100BF400C0E0C0F0C083C082C0D075D000C000C0C7
:100C040001C002C003C004C005C006C007E53A54D1
:100C140004FFE4FCFDFE7B04FAF9F8C31202EE7053
:100C2400190541E54170020540D3E5419402E540D0
:100C340094004006754201533AFBE53A5408FFE438
:100C4400FCFDFE7B08FAF9F8C31202EE70190544A4
:100C5400E54470020543D3E5449402E5439400401F
:100C640006754501533AF7D007D006D005D004D015
:100C740003D002D001D000D0D0D082D083D0F0D025
:020C8400E0325C
:03003B00020EA80A
:100EA800C0E0C0D075D000C006C2D88537EAE536A4
:100EB800F5FAE42537F53774243536F536E509159E
:100EC80009700215080539E539700205380521E56C
:100ED8002170020520AE20D39468EE940040067578
:0C0EE8002000752100D006D0D0D0E032F0
:03002300020E0BBF
:100E0B00C0E0C0F0C083C082C0D075D000C000C0AD
:100E1B0001C002C003C004C005C006C0073098164D
:100E2B00C2987B007A00790AAD991208D6754000FA
:100E3B00754100433A04D007D006D005D004D00347
:100E4B00D002D001D000D0D0D082D083D0F0D0E06F
:010E5B003264
:03004300020D6447
:100D6400C0E0C0F0C083C082C0D075D000C000C055
:100D740001C002C003C004C005C006C007E59A3024
:100D8400E017539AFE7B007A007915AD9B1209C0D7
:100D9400754300754400433A08D007D006D005D007
:100DA40004D003D002D001D000D0D0D082D083D0E0
:040DB400F0D0E03269
:10004600E709F608DFFA8046E709F208DFFA803E9C
:1000560088828C83E709F0A3DFFA8032E309F60889
:10006600DFFA8078E309F208DFFA807088828C83F1
:10007600E309F0A3DFFA806489828A83E0A3F608A5
:10008600DFFA805889828A83E0A3F208DFFA804C7F
:1000960080D280FA80C680D4806980F28033801056
:1000A60080A680EA809A80A880DA80E280CA8033BF
:1000B60089828A83ECFAE493A3C8C582C8CCC58337
:1000C600CCF0A3C8C582C8CCC583CCDFE9DEE78007
:1000D6000D89828A83E493A3F608DFF9ECFAA9F086
:1000E600EDFB2289828A83ECFAE0A3C8C582C8CCDC
:1000F600C583CCF0A3C8C582C8CCC583CCDFEADEF5
:10010600E880DB89828A83E493A3F208DFF980CC56
:1001160088F0EF60010E4E60C388F0ED2402B4044F
:100126000050B9F582EB2402B4040050AF232345F6
:0601360082239000967385
:10013C00BB010689828A83E0225002E722BBFE02C1
:09014C00E32289828A83E49322F4
:10015500BB010CE58229F582E5833AF583E022505F
:1001650006E92582F8E622BBFE06E92582F8E222A9
:0D017500E58229F582E5833AF583E49322C3
:10018200F8BB010DE58229F582E5833AF583E8F0B3
:10019200225006E92582C8F622BBFE05E92582C85F
:0201A200F22247
:1001A400A3F8E0C5F025F0F0E5821582700215830E
:0601B400E0C838F0E8226B
:1001BA00BB010A89828A83E0F5F0A3E02250068710
:1001CA00F009E71922BBFE07E3F5F009E3192289D2
:0B01DA00828A83E493F5F07401932205
:1001E500BB0110E58229F582E5833AF583E0F5F058
:1001F500A3E0225009E92582F886F008E622BBFE35
:100205000AE92582F8E2F5F008E222E5832AF5837A
:08021500E993F5F0A3E993223F
:10021D00BB010789828A83020581500B09C5F0272E
:10022D00F7C5F01937F722BBFE0D09F8E325F0F3FA
:10023D00C5F019E338F322F889828A837401932576
:08024D00F0C5F0F8E49338223B
:10025500BB010DC58229C582C5833AC583020581C7
:100265005011C58229F808E5F026F618F5F0E58263
:1002750036F622BBFE11C58229F808E225F0F5F015
:10028500F218E23582F222F8E58229F582E5832A21
:0D029500F58374019325F0F5F0E493382211
:1002A200BB010A89828A83F0E5F0A3F0225006F7A7
:0F02B20009A7F01922BBFE06F3E5F009F31922A4
:1002C100F8BB0111E58229F582E5833AF583E8F06F
:1002D100E5F0A3F0225009E92582C8F608A6F0222C
:0D02E100BBFE09E92582C8F2E5F008F22213
:1002EE00EB9FF5F0EA9E42F0E99D42F0EC6480C887
:0602FE0064809845F02227
:10030400BB010DE58229F582E5833AF5830205A94F
:100314005007E92582F8020597BBFE07E92582F814
:100324000205BBE58229F582E5833AF5830205CD12
:10033400BB0120E58229F582E5833AF583D0F0D02C
:10034400E0F8D0E0F9D0E0FAD0E0FBE8C0E0C0F09B
:100354000205B25018E92582F8D083D082D0E0F9A2
:10036400D0E0FAD0E0FBC082C0830205A0BBFE1837
:10037400E92582F8D083D082D0E0F9D0E0FAD0E049
:09038400FBC082C0830205C42203
:10038D00D083D082F8E4937012740193700DA3A3FF
:10039D0093F8740193F5828883E473740293B5F036
:0D03AD00067403936860E9A3A3A3A380D89E
:1003BA00E3F5F009E208B5F06D606B80F3E3F5F060
:1003CA0009E608B5F060605E80F387F009E608B5D3
:1003DA00F054605280F487F009E208B5F0486046AC
:1003EA0080F488828C8387F009E0A3B5F038603600
:1003FA0080F488828C8387F009E493A3B5F02760A0
:10040A002580F388828C83E3F5F009E0A3B5F01622
:10041A00601480F388828C83E3F5F009E493A3B532
:10042A00F004600280F20204E5808580E7808E8015
:10043A00D2803C8015806C807E809B80B5808B80CA
:10044A00A1804F8070803A0204F189828A83ECFA93
:10045A00E493F5F0A3C8C582C8CCC583CCE493A3C2
:10046A00C8C582C8CCC583CCB5F070606E80E189FE
:10047A00828A83E493F5F0A3E208B5F05E605C80BB
:10048A00F289828A83E0F5F0A3E608B5F04D604B65
:10049A0080F389828A83E0F5F0A3E208B5F03C6034
:1004AA003A80F389828A83E493F5F0A3E608B5F0EB
:1004BA002A602880F2805389828A83ECFAE493F5D1
:1004CA00F0A3C8C582C8CCC583CCE0A3C8C582C87E
:1004DA00CCC583CCB5F004600280E27FFFB5F002A0
:1004EA000F2240027F012289828A83ECFAE0F5F02A
:1004FA00A3C8C582C8CCC583CCE0A3C8C582C8CC72
:10050A00C583CCB5F0D560D380E389828A83ECFABF
:10051A00E0F5F0A3C8C582C8CCC583CCE493A3C8D0
:10052A00C582C8CCC583CCB5F0B160AF80E288F093
:10053A00ED2402B4040050A3F582EB2402B40400B3
:0B054A00509923234582239004337353
:10002600E4FFFE12013C600C0FEF70010E09E9704F
:05003600F20A80EF2238
:10055500EF4E6012EF60010EEDBB010B89828A83BD
:10056500F0A3DFFCDEFA2289F05007F709DFFCA9CA
:0C057500F022BBFEFCF309DFFCA9F02221
:10058100C5F0F8A3E028F0C5F0F8E5821582700205
:060591001583E038F022A2
:09059700E6FB08E6FA08E6F92289
:0905A000EBF608EAF608E9F62280
:0905A900E0FBA3E0FAA3E0F92253
:0905B200EBF0A3EAF0A3E9F0224A
:0905BB00E2FB08E2FA08E2F92271
:0905C400EBF208EAF208E9F22268
:0C05CD00E493FB740193FA740293F9228A
:00000001FF
